{
  "contractName": "Voting",
  "abi": [
    {
      "inputs": [
        {
          "internalType": "string",
          "name": "_ballotOfficialName",
          "type": "string"
        },
        {
          "internalType": "string",
          "name": "_proposal",
          "type": "string"
        }
      ],
      "stateMutability": "nonpayable",
      "type": "constructor"
    },
    {
      "anonymous": false,
      "inputs": [
        {
          "indexed": false,
          "internalType": "string",
          "name": "choice",
          "type": "string"
        }
      ],
      "name": "choiceAdded",
      "type": "event"
    },
    {
      "anonymous": false,
      "inputs": [
        {
          "indexed": false,
          "internalType": "address",
          "name": "voter",
          "type": "address"
        }
      ],
      "name": "voteDone",
      "type": "event"
    },
    {
      "anonymous": false,
      "inputs": [],
      "name": "voteEnded",
      "type": "event"
    },
    {
      "anonymous": false,
      "inputs": [],
      "name": "voteStarted",
      "type": "event"
    },
    {
      "anonymous": false,
      "inputs": [
        {
          "indexed": false,
          "internalType": "address",
          "name": "voter",
          "type": "address"
        }
      ],
      "name": "voterAdded",
      "type": "event"
    },
    {
      "inputs": [],
      "name": "ballotOfficialAddress",
      "outputs": [
        {
          "internalType": "address",
          "name": "",
          "type": "address"
        }
      ],
      "stateMutability": "view",
      "type": "function"
    },
    {
      "inputs": [],
      "name": "ballotOfficialName",
      "outputs": [
        {
          "internalType": "string",
          "name": "",
          "type": "string"
        }
      ],
      "stateMutability": "view",
      "type": "function"
    },
    {
      "inputs": [],
      "name": "choiceCount",
      "outputs": [
        {
          "internalType": "uint256",
          "name": "",
          "type": "uint256"
        }
      ],
      "stateMutability": "view",
      "type": "function"
    },
    {
      "inputs": [
        {
          "internalType": "uint256",
          "name": "",
          "type": "uint256"
        }
      ],
      "name": "choices",
      "outputs": [
        {
          "internalType": "string",
          "name": "",
          "type": "string"
        }
      ],
      "stateMutability": "view",
      "type": "function"
    },
    {
      "inputs": [],
      "name": "proposal",
      "outputs": [
        {
          "internalType": "string",
          "name": "",
          "type": "string"
        }
      ],
      "stateMutability": "view",
      "type": "function"
    },
    {
      "inputs": [
        {
          "internalType": "uint256",
          "name": "",
          "type": "uint256"
        }
      ],
      "name": "result",
      "outputs": [
        {
          "internalType": "string",
          "name": "",
          "type": "string"
        }
      ],
      "stateMutability": "view",
      "type": "function"
    },
    {
      "inputs": [],
      "name": "state",
      "outputs": [
        {
          "internalType": "enum Voting.State",
          "name": "",
          "type": "uint8"
        }
      ],
      "stateMutability": "view",
      "type": "function"
    },
    {
      "inputs": [],
      "name": "totalVote",
      "outputs": [
        {
          "internalType": "uint256",
          "name": "",
          "type": "uint256"
        }
      ],
      "stateMutability": "view",
      "type": "function"
    },
    {
      "inputs": [],
      "name": "totalVoter",
      "outputs": [
        {
          "internalType": "uint256",
          "name": "",
          "type": "uint256"
        }
      ],
      "stateMutability": "view",
      "type": "function"
    },
    {
      "inputs": [
        {
          "internalType": "address",
          "name": "",
          "type": "address"
        }
      ],
      "name": "voterRegister",
      "outputs": [
        {
          "internalType": "string",
          "name": "voterName",
          "type": "string"
        },
        {
          "internalType": "bool",
          "name": "voted",
          "type": "bool"
        }
      ],
      "stateMutability": "view",
      "type": "function"
    },
    {
      "inputs": [
        {
          "internalType": "uint256",
          "name": "",
          "type": "uint256"
        }
      ],
      "name": "votes",
      "outputs": [
        {
          "internalType": "address",
          "name": "voterAddress",
          "type": "address"
        },
        {
          "internalType": "string",
          "name": "choice",
          "type": "string"
        }
      ],
      "stateMutability": "view",
      "type": "function"
    },
    {
      "inputs": [
        {
          "internalType": "string",
          "name": "_choice",
          "type": "string"
        }
      ],
      "name": "addChoice",
      "outputs": [],
      "stateMutability": "nonpayable",
      "type": "function"
    },
    {
      "inputs": [
        {
          "internalType": "address",
          "name": "_voterAddress",
          "type": "address"
        },
        {
          "internalType": "string",
          "name": "_voterName",
          "type": "string"
        }
      ],
      "name": "addVoter",
      "outputs": [],
      "stateMutability": "nonpayable",
      "type": "function"
    },
    {
      "inputs": [],
      "name": "startVote",
      "outputs": [],
      "stateMutability": "nonpayable",
      "type": "function"
    },
    {
      "inputs": [
        {
          "internalType": "string",
          "name": "_choice",
          "type": "string"
        }
      ],
      "name": "doVote",
      "outputs": [
        {
          "internalType": "bool",
          "name": "voted",
          "type": "bool"
        }
      ],
      "stateMutability": "nonpayable",
      "type": "function"
    },
    {
      "inputs": [],
      "name": "endVote",
      "outputs": [],
      "stateMutability": "nonpayable",
      "type": "function"
    },
    {
      "inputs": [
        {
          "internalType": "string",
          "name": "_choice",
          "type": "string"
        }
      ],
      "name": "getVote",
      "outputs": [
        {
          "internalType": "uint256",
          "name": "voteCount",
          "type": "uint256"
        }
      ],
      "stateMutability": "view",
      "type": "function"
    }
  ],
  "bytecode": "0x608060405260008055600060015560006002553480156200001f57600080fd5b50604051620020a6380380620020a683398181016040528101906200004591906200027d565b33600360006101000a81548173ffffffffffffffffffffffffffffffffffffffff021916908373ffffffffffffffffffffffffffffffffffffffff16021790555081600490816200009791906200054d565b508060059081620000a991906200054d565b506000600a60006101000a81548160ff02191690836002811115620000d357620000d262000634565b5b0217905550505062000663565b6000604051905090565b600080fd5b600080fd5b600080fd5b600080fd5b6000601f19601f8301169050919050565b7f4e487b7100000000000000000000000000000000000000000000000000000000600052604160045260246000fd5b6200014982620000fe565b810181811067ffffffffffffffff821117156200016b576200016a6200010f565b5b80604052505050565b600062000180620000e0565b90506200018e82826200013e565b919050565b600067ffffffffffffffff821115620001b157620001b06200010f565b5b620001bc82620000fe565b9050602081019050919050565b60005b83811015620001e9578082015181840152602081019050620001cc565b83811115620001f9576000848401525b50505050565b600062000216620002108462000193565b62000174565b905082815260208101848484011115620002355762000234620000f9565b5b62000242848285620001c9565b509392505050565b600082601f830112620002625762000261620000f4565b5b815162000274848260208601620001ff565b91505092915050565b60008060408385031215620002975762000296620000ea565b5b600083015167ffffffffffffffff811115620002b857620002b7620000ef565b5b620002c6858286016200024a565b925050602083015167ffffffffffffffff811115620002ea57620002e9620000ef565b5b620002f8858286016200024a565b9150509250929050565b600081519050919050565b7f4e487b7100000000000000000000000000000000000000000000000000000000600052602260045260246000fd5b600060028204905060018216806200035557607f821691505b6020821081036200036b576200036a6200030d565b5b50919050565b60008190508160005260206000209050919050565b60006020601f8301049050919050565b600082821b905092915050565b600060088302620003d57fffffffffffffffffffffffffffffffffffffffffffffffffffffffffffffffff8262000396565b620003e1868362000396565b95508019841693508086168417925050509392505050565b6000819050919050565b6000819050919050565b60006200042e620004286200042284620003f9565b62000403565b620003f9565b9050919050565b6000819050919050565b6200044a836200040d565b62000462620004598262000435565b848454620003a3565b825550505050565b600090565b620004796200046a565b620004868184846200043f565b505050565b5b81811015620004ae57620004a26000826200046f565b6001810190506200048c565b5050565b601f821115620004fd57620004c78162000371565b620004d28462000386565b81016020851015620004e2578190505b620004fa620004f18562000386565b8301826200048b565b50505b505050565b600082821c905092915050565b6000620005226000198460080262000502565b1980831691505092915050565b60006200053d83836200050f565b9150826002028217905092915050565b620005588262000302565b67ffffffffffffffff8111156200057457620005736200010f565b5b6200058082546200033c565b6200058d828285620004b2565b600060209050601f831160018114620005c55760008415620005b0578287015190505b620005bc85826200052f565b8655506200062c565b601f198416620005d58662000371565b60005b82811015620005ff57848901518255600182019150602085019450602081019050620005d8565b868310156200061f57848901516200061b601f8916826200050f565b8355505b6001600288020188555050505b505050505050565b7f4e487b7100000000000000000000000000000000000000000000000000000000600052602160045260246000fd5b611a3380620006736000396000f3fe608060405234801561001057600080fd5b506004361061010b5760003560e01c806390949747116100a2578063c19d93fb11610071578063c19d93fb146102aa578063d9e95a98146102c8578063de975d18146102e4578063f1cea4c714610302578063f6fd7fde146103205761010b565b80639094974714610221578063af1540871461023f578063b922394614610270578063baa40e5c1461027a5761010b565b80635df81330116100de5780635df81330146101985780635fa520bb146101c95780636332abc9146101e5578063753ec103146102035761010b565b8063240815b7146101105780633c5940591461012e57806346f7374d1461015e5780634c0a6af01461018e575b600080fd5b610118610350565b6040516101259190610fe1565b60405180910390f35b6101486004803603810190610143919061103c565b610356565b6040516101559190611102565b60405180910390f35b61017860048036038101906101739190611259565b6103f6565b60405161018591906112bd565b60405180910390f35b610196610664565b005b6101b260048036038101906101ad919061103c565b610759565b6040516101c0929190611319565b60405180910390f35b6101e360048036038101906101de9190611259565b610825565b005b6101ed610936565b6040516101fa9190610fe1565b60405180910390f35b61020b61093c565b6040516102189190611102565b60405180910390f35b6102296109ca565b6040516102369190611349565b60405180910390f35b61025960048036038101906102549190611390565b6109f0565b6040516102679291906113bd565b60405180910390f35b610278610aa9565b005b610294600480360381019061028f9190611259565b610bf5565b6040516102a19190610fe1565b60405180910390f35b6102b2610cab565b6040516102bf9190611464565b60405180910390f35b6102e260048036038101906102dd919061147f565b610cbe565b005b6102ec610e48565b6040516102f99190611102565b60405180910390f35b61030a610ed6565b6040516103179190610fe1565b60405180910390f35b61033a6004803603810190610335919061103c565b610edc565b6040516103479190611102565b60405180910390f35b60025481565b600960205280600052604060002060009150905080546103759061150a565b80601f01602080910402602001604051908101604052809291908181526020018280546103a19061150a565b80156103ee5780601f106103c3576101008083540402835291602001916103ee565b820191906000526020600020905b8154815290600101906020018083116103d157829003601f168201915b505050505081565b6000600180600281111561040d5761040c6113ed565b5b600a60009054906101000a900460ff16600281111561042f5761042e6113ed565b5b1461043957600080fd5b600080600860003373ffffffffffffffffffffffffffffffffffffffff1673ffffffffffffffffffffffffffffffffffffffff16815260200190815260200160002060000180546104899061150a565b9050141580156104e65750600860003373ffffffffffffffffffffffffffffffffffffffff1673ffffffffffffffffffffffffffffffffffffffff16815260200190815260200160002060010160009054906101000a900460ff16155b15610623576001600860003373ffffffffffffffffffffffffffffffffffffffff1673ffffffffffffffffffffffffffffffffffffffff16815260200190815260200160002060010160006101000a81548160ff02191690831515021790555061054e610f7c565b33816000019073ffffffffffffffffffffffffffffffffffffffff16908173ffffffffffffffffffffffffffffffffffffffff16815250508481602001819052508060076000600154815260200190815260200160002060008201518160000160006101000a81548173ffffffffffffffffffffffffffffffffffffffff021916908373ffffffffffffffffffffffffffffffffffffffff160217905550602082015181600101908161060191906116e7565b5090505060016000815480929190610618906117e8565b919050555060019150505b7f55c65cf9526efdf6c2252fe9757889dbd93e10172cad0f2edb1df619c88dbf7d336040516106529190611349565b60405180910390a18092505050919050565b6000806002811115610679576106786113ed565b5b600a60009054906101000a900460ff16600281111561069b5761069a6113ed565b5b146106a557600080fd5b600360009054906101000a900473ffffffffffffffffffffffffffffffffffffffff1673ffffffffffffffffffffffffffffffffffffffff163373ffffffffffffffffffffffffffffffffffffffff16146106ff57600080fd5b6001600a60006101000a81548160ff02191690836002811115610725576107246113ed565b5b02179055507fd0dc01800a369fef30d3fced5275b8b916549867622e79efca5245c479fda4ea60405160405180910390a150565b60076020528060005260406000206000915090508060000160009054906101000a900473ffffffffffffffffffffffffffffffffffffffff16908060010180546107a29061150a565b80601f01602080910402602001604051908101604052809291908181526020018280546107ce9061150a565b801561081b5780601f106107f05761010080835404028352916020019161081b565b820191906000526020600020905b8154815290600101906020018083116107fe57829003601f168201915b5050505050905082565b600080600281111561083a576108396113ed565b5b600a60009054906101000a900460ff16600281111561085c5761085b6113ed565b5b1461086657600080fd5b600360009054906101000a900473ffffffffffffffffffffffffffffffffffffffff1673ffffffffffffffffffffffffffffffffffffffff163373ffffffffffffffffffffffffffffffffffffffff16146108c057600080fd5b8160066000600254815260200190815260200160002090816108e291906116e7565b50600260008154809291906108f6906117e8565b91905055507fba6b30eb3b7d3bc2fb7b79cfbce81c0bac85268f4fa985a5c5aa6f141fbf14658260405161092a9190611102565b60405180910390a15050565b60005481565b600580546109499061150a565b80601f01602080910402602001604051908101604052809291908181526020018280546109759061150a565b80156109c25780601f10610997576101008083540402835291602001916109c2565b820191906000526020600020905b8154815290600101906020018083116109a557829003601f168201915b505050505081565b600360009054906101000a900473ffffffffffffffffffffffffffffffffffffffff1681565b6008602052806000526040600020600091509050806000018054610a139061150a565b80601f0160208091040260200160405190810160405280929190818152602001828054610a3f9061150a565b8015610a8c5780601f10610a6157610100808354040283529160200191610a8c565b820191906000526020600020905b815481529060010190602001808311610a6f57829003601f168201915b5050505050908060010160009054906101000a900460ff16905082565b6001806002811115610abe57610abd6113ed565b5b600a60009054906101000a900460ff166002811115610ae057610adf6113ed565b5b14610aea57600080fd5b600360009054906101000a900473ffffffffffffffffffffffffffffffffffffffff1673ffffffffffffffffffffffffffffffffffffffff163373ffffffffffffffffffffffffffffffffffffffff1614610b4457600080fd5b6002600a60006101000a81548160ff02191690836002811115610b6a57610b696113ed565b5b021790555060005b600154811015610bc55760076000828152602001908152602001600020600101600960008381526020019081526020016000209081610bb1919061185b565b508080610bbd906117e8565b915050610b72565b507f0deeca6c5a4a24936ed5053feb119562545a36119b158ecd0bb902a689be2d6660405160405180910390a150565b60006002806002811115610c0c57610c0b6113ed565b5b600a60009054906101000a900460ff166002811115610c2e57610c2d6113ed565b5b14610c3857600080fd5b6000805b600154811015610ca057848051906020012060076000838152602001908152602001600020600101604051610c7191906119e6565b604051809103902003610c8d578180610c89906117e8565b9250505b8080610c98906117e8565b915050610c3c565b508092505050919050565b600a60009054906101000a900460ff1681565b6000806002811115610cd357610cd26113ed565b5b600a60009054906101000a900460ff166002811115610cf557610cf46113ed565b5b14610cff57600080fd5b600360009054906101000a900473ffffffffffffffffffffffffffffffffffffffff1673ffffffffffffffffffffffffffffffffffffffff163373ffffffffffffffffffffffffffffffffffffffff1614610d5957600080fd5b610d61610fac565b828160000181905250600081602001901515908115158152505080600860008673ffffffffffffffffffffffffffffffffffffffff1673ffffffffffffffffffffffffffffffffffffffff1681526020019081526020016000206000820151816000019081610dd091906116e7565b5060208201518160010160006101000a81548160ff021916908315150217905550905050600080815480929190610e06906117e8565b91905055507fb9e5f9042e6c6eb94817f660cfa81afea9585e59d72bfc3348a2305cbd33e13384604051610e3a9190611349565b60405180910390a150505050565b60048054610e559061150a565b80601f0160208091040260200160405190810160405280929190818152602001828054610e819061150a565b8015610ece5780601f10610ea357610100808354040283529160200191610ece565b820191906000526020600020905b815481529060010190602001808311610eb157829003601f168201915b505050505081565b60015481565b60066020528060005260406000206000915090508054610efb9061150a565b80601f0160208091040260200160405190810160405280929190818152602001828054610f279061150a565b8015610f745780601f10610f4957610100808354040283529160200191610f74565b820191906000526020600020905b815481529060010190602001808311610f5757829003601f168201915b505050505081565b6040518060400160405280600073ffffffffffffffffffffffffffffffffffffffff168152602001606081525090565b6040518060400160405280606081526020016000151581525090565b6000819050919050565b610fdb81610fc8565b82525050565b6000602082019050610ff66000830184610fd2565b92915050565b6000604051905090565b600080fd5b600080fd5b61101981610fc8565b811461102457600080fd5b50565b60008135905061103681611010565b92915050565b60006020828403121561105257611051611006565b5b600061106084828501611027565b91505092915050565b600081519050919050565b600082825260208201905092915050565b60005b838110156110a3578082015181840152602081019050611088565b838111156110b2576000848401525b50505050565b6000601f19601f8301169050919050565b60006110d482611069565b6110de8185611074565b93506110ee818560208601611085565b6110f7816110b8565b840191505092915050565b6000602082019050818103600083015261111c81846110c9565b905092915050565b600080fd5b600080fd5b7f4e487b7100000000000000000000000000000000000000000000000000000000600052604160045260246000fd5b611166826110b8565b810181811067ffffffffffffffff821117156111855761118461112e565b5b80604052505050565b6000611198610ffc565b90506111a4828261115d565b919050565b600067ffffffffffffffff8211156111c4576111c361112e565b5b6111cd826110b8565b9050602081019050919050565b82818337600083830152505050565b60006111fc6111f7846111a9565b61118e565b90508281526020810184848401111561121857611217611129565b5b6112238482856111da565b509392505050565b600082601f8301126112405761123f611124565b5b81356112508482602086016111e9565b91505092915050565b60006020828403121561126f5761126e611006565b5b600082013567ffffffffffffffff81111561128d5761128c61100b565b5b6112998482850161122b565b91505092915050565b60008115159050919050565b6112b7816112a2565b82525050565b60006020820190506112d260008301846112ae565b92915050565b600073ffffffffffffffffffffffffffffffffffffffff82169050919050565b6000611303826112d8565b9050919050565b611313816112f8565b82525050565b600060408201905061132e600083018561130a565b818103602083015261134081846110c9565b90509392505050565b600060208201905061135e600083018461130a565b92915050565b61136d816112f8565b811461137857600080fd5b50565b60008135905061138a81611364565b92915050565b6000602082840312156113a6576113a5611006565b5b60006113b48482850161137b565b91505092915050565b600060408201905081810360008301526113d781856110c9565b90506113e660208301846112ae565b9392505050565b7f4e487b7100000000000000000000000000000000000000000000000000000000600052602160045260246000fd5b6003811061142d5761142c6113ed565b5b50565b600081905061143e8261141c565b919050565b600061144e82611430565b9050919050565b61145e81611443565b82525050565b60006020820190506114796000830184611455565b92915050565b6000806040838503121561149657611495611006565b5b60006114a48582860161137b565b925050602083013567ffffffffffffffff8111156114c5576114c461100b565b5b6114d18582860161122b565b9150509250929050565b7f4e487b7100000000000000000000000000000000000000000000000000000000600052602260045260246000fd5b6000600282049050600182168061152257607f821691505b602082108103611535576115346114db565b5b50919050565b60008190508160005260206000209050919050565b60006020601f8301049050919050565b600082821b905092915050565b60006008830261159d7fffffffffffffffffffffffffffffffffffffffffffffffffffffffffffffffff82611560565b6115a78683611560565b95508019841693508086168417925050509392505050565b6000819050919050565b60006115e46115df6115da84610fc8565b6115bf565b610fc8565b9050919050565b6000819050919050565b6115fe836115c9565b61161261160a826115eb565b84845461156d565b825550505050565b600090565b61162761161a565b6116328184846115f5565b505050565b5b818110156116565761164b60008261161f565b600181019050611638565b5050565b601f82111561169b5761166c8161153b565b61167584611550565b81016020851015611684578190505b61169861169085611550565b830182611637565b50505b505050565b600082821c905092915050565b60006116be600019846008026116a0565b1980831691505092915050565b60006116d783836116ad565b9150826002028217905092915050565b6116f082611069565b67ffffffffffffffff8111156117095761170861112e565b5b611713825461150a565b61171e82828561165a565b600060209050601f831160018114611751576000841561173f578287015190505b61174985826116cb565b8655506117b1565b601f19841661175f8661153b565b60005b8281101561178757848901518255600182019150602085019450602081019050611762565b868310156117a457848901516117a0601f8916826116ad565b8355505b6001600288020188555050505b505050505050565b7f4e487b7100000000000000000000000000000000000000000000000000000000600052601160045260246000fd5b60006117f382610fc8565b91507fffffffffffffffffffffffffffffffffffffffffffffffffffffffffffffffff8203611825576118246117b9565b5b600182019050919050565b60008154905061183f8161150a565b9050919050565b60008190508160005260206000209050919050565b818103611869575050611941565b61187282611830565b67ffffffffffffffff81111561188b5761188a61112e565b5b611895825461150a565b6118a082828561165a565b6000601f8311600181146118cf57600084156118bd578287015490505b6118c785826116cb565b86555061193a565b601f1984166118dd87611846565b96506118e88661153b565b60005b82811015611910578489015482556001820191506001850194506020810190506118eb565b8683101561192d5784890154611929601f8916826116ad565b8355505b6001600288020188555050505b5050505050505b565b600081905092915050565b60008190508160005260206000209050919050565b600081546119708161150a565b61197a8186611943565b9450600182166000811461199557600181146119aa576119dd565b60ff19831686528115158202860193506119dd565b6119b38561194e565b60005b838110156119d5578154818901526001820191506020810190506119b6565b838801955050505b50505092915050565b60006119f28284611963565b91508190509291505056fea2646970667358221220c758f8a8eb555a0b0b9eccc9a09b8bbce635be937dbd2bb6d9f078c9de48544564736f6c634300080f0033",
  "immutableReferences": {},
  "source": "// SPDX-License-Identifier: Unlicensed\r\n\r\npragma solidity 0.8.15;\r\n\r\ncontract Voting {\r\n    struct Vote {\r\n        address voterAddress;\r\n        string choice;\r\n    }\r\n\r\n    struct Voter {\r\n        string voterName;\r\n        bool voted;\r\n    }\r\n\r\n    uint256 public totalVoter = 0;\r\n    uint256 public totalVote = 0;\r\n    uint256 public choiceCount = 0;\r\n\r\n    address public ballotOfficialAddress;\r\n    string public ballotOfficialName;\r\n    string public proposal;\r\n\r\n    mapping(uint256 => string) public choices;\r\n    mapping(uint256 => Vote) public votes;\r\n    mapping(address => Voter) public voterRegister;\r\n    mapping(uint256 => string) public result;\r\n\r\n    enum State {\r\n        Created,\r\n        Voting,\r\n        Ended\r\n    }\r\n    State public state;\r\n\r\n    constructor(string memory _ballotOfficialName, string memory _proposal) {\r\n        ballotOfficialAddress = msg.sender;\r\n        ballotOfficialName = _ballotOfficialName;\r\n        proposal = _proposal;\r\n\r\n        state = State.Created;\r\n    }\r\n\r\n    modifier condition(bool _condition) {\r\n        require(_condition);\r\n        _;\r\n    }\r\n\r\n    modifier onlyOfficial() {\r\n        require(msg.sender == ballotOfficialAddress);\r\n        _;\r\n    }\r\n\r\n    modifier inState(State _state) {\r\n        require(state == _state);\r\n        _;\r\n    }\r\n\r\n    event voterAdded(address voter);\r\n    event choiceAdded(string choice);\r\n    event voteStarted();\r\n    event voteEnded();\r\n    event voteDone(address voter);\r\n\r\n    // Add Choice\r\n    function addChoice(string memory _choice)\r\n        public\r\n        inState(State.Created)\r\n        onlyOfficial\r\n    {\r\n        choices[choiceCount] = _choice;\r\n        choiceCount++;\r\n        emit choiceAdded(_choice);\r\n    }\r\n\r\n    // Add Voter\r\n    function addVoter(address _voterAddress, string memory _voterName)\r\n        public\r\n        inState(State.Created)\r\n        onlyOfficial\r\n    {\r\n        Voter memory v;\r\n        v.voterName = _voterName;\r\n        v.voted = false;\r\n        voterRegister[_voterAddress] = v;\r\n        totalVoter++;\r\n        emit voterAdded(_voterAddress);\r\n    }\r\n\r\n    // Declare voting starts now\r\n    function startVote() public inState(State.Created) onlyOfficial {\r\n        state = State.Voting;\r\n        emit voteStarted();\r\n    }\r\n\r\n    // Voters vote by indicating their choice\r\n    function doVote(string memory _choice)\r\n        public\r\n        inState(State.Voting)\r\n        returns (bool voted)\r\n    {\r\n        bool found = false;\r\n\r\n        if (\r\n            bytes(voterRegister[msg.sender].voterName).length != 0 &&\r\n            !voterRegister[msg.sender].voted\r\n        ) {\r\n            voterRegister[msg.sender].voted = true;\r\n            Vote memory v;\r\n            v.voterAddress = msg.sender;\r\n            v.choice = _choice;\r\n\r\n            votes[totalVote] = v;\r\n            totalVote++;\r\n\r\n            found = true;\r\n        }\r\n        emit voteDone(msg.sender);\r\n        return found;\r\n    }\r\n\r\n    // End Votes\r\n    function endVote() public inState(State.Voting) onlyOfficial {\r\n        state = State.Ended;\r\n\r\n        for (uint256 i = 0; i < totalVote; i++) {\r\n            result[i] = votes[i].choice;\r\n        }\r\n\r\n        emit voteEnded();\r\n    }\r\n\r\n    // Get Votes\r\n    function getVote(string memory _choice)\r\n        public\r\n        view\r\n        inState(State.Ended)\r\n        returns (uint256 voteCount)\r\n    {\r\n        uint256 count = 0;\r\n\r\n        for (uint256 i = 0; i < totalVote; i++) {\r\n            if (\r\n                keccak256(bytes(votes[i].choice)) == keccak256(bytes(_choice))\r\n            ) {\r\n                count++;\r\n            }\r\n        }\r\n\r\n        return count;\r\n    }\r\n}\r\n",
  "sourcePath": "D:\\Computer\\Blockchain\\Blockchain Projects\\Voting System\\src\\contracts\\Voting.sol",
  "compiler": {
    "name": "solc",
    "version": "0.8.15+commit.e14f2714.Emscripten.clang"
  },
  "schemaVersion": "3.4.8",
  "updatedAt": "2022-08-08T12:45:35.692Z",
  "devdoc": {
    "kind": "dev",
    "methods": {},
    "version": 1
  },
  "userdoc": {
    "kind": "user",
    "methods": {},
    "version": 1
  }
}